:020000040800F2
:10000000001800205D0F00089716000895160008DC
:1000100000000000000000000000000000000000E0
:10002000000000000000000000000000931600081F
:100030000000000000000000911600088116000872
:10004000610F0008610F0008610F0008610F0008D0
:10005000610F0008610F0008610F0008610F0008C0
:10006000610F0008610F0008610F0008610F0008B0
:10007000610F0008610F000899160008610F000861
:10008000610F00080000000000000000610F000880
:1000900000000000610F0008610F0008610F0008F8
:1000A00000000000610F0008610F0008610F0008E8
:1000B000610F00080000000091100008610F0008A7
:1000C0005FF808F10122F0B5964C91B02368134314
:1000D00023606168944B0B4063602168934B0B4035
:1000E00023602168924B0B4023606168914B0B4069
:1000F0000F216360E36A8B43E362216B8E4B0B40FD
:100100002363636B934363630023A3608B4A8C492F
:100110009A188A4204D28B49C95804331160F5E712
:10012000894B8A4A934202D2002204C3F9E7102283
:10013000874D884F2B6813432B6001F06DF8012326
:10014000A26978481A43A261A269291C134002934C
:10015000029BFB691B021B0AFB613A6A7E4B134040
:100160003B623B6A7D4A1B021B0A3B620C236668AA
:100170001E40042E0BD045682B4080256D02082BB5
:1001800007D1C02340685B021840A84201D1236810
:100190000BE023682B432360106823689B0304D47F
:1001A00013681B1A642BF8D942E00420636B0343E5
:1001B0006363636B0338034363631568636B594878
:1001C0009B0704D413685B1B022BF7D930E0F8259A
:1001D000436BAB43783D2B4343630C2345682B4073
:1001E000082B25D005685E4B2B40036015682068FE
:1001F0004C4B800104D513685B1B022BF7D917E029
:100200000F25D86AA843D8625D68564828408825DB
:100210006D0328438025586018686D0428431860D2
:10022000106823689B0104D413681B1A022BF8D9A9
:10023000FEE701200B68464D034208D0F0256368B5
:100240003848AB43636023689B0108D442E02B68C5
:10025000834303432B602B6803423BD0EEE7032527
:100260004368AB43013D2B43436010680C23666831
:100270002C4D3340082B05D013683B4D1B1AAB4265
:10028000F4D927E00B686A68384B13406B6001F0C3
:1002900005F96B68364E1B061B0FF35C354DD840D5
:1002A000286000F0B9FFFA212868890001F07AFA85
:1002B000314B0138314A98420DD8C02150603B6A19
:1002C00009061B021B0A0B433B62002393600733A2
:1002D000136000E0FEE7042113680B4313600C2257
:1002E0003B6A1B021B0A3B6261680E4B0A40042AF0
:1002F00001D0082A02D0224B2B604AE05F685A687E
:10030000D96A0F23C02019408023BF0240023F0F4B
:100310000240023701315B029A4235D0824233D12A
:10032000184832E0001002400CB8FF08FFFFF6FE4C
:10033000FFFFFBFFFFFFC0FF2CFEFFFF00000020C0
:100340001C000020181900081C000020B801002023
:100350000020024000ED00E0FFFF00FF040100204C
:10036000FFFFFFFEFF7FC2FF88130000FFF8FFFFC3
:10037000DE18000818000020FFFFFF0010E000E07A
:1003800000127A00006CDC02D84801F00BFA4743F7
:100390002F6063682A681B061B0FF35C9020DA400D
:1003A00080232A606269DB031A4362616269012566
:1003B00013400593059B802362699B021A43626187
:1003C0006269CB4E13400493049B80236269DB0275
:1003D0001A4362616269C005134003932022039BA4
:1003E000E0238362B2620B93DE3B0D930BA95B1992
:1003F00000240E930C9501F08DF81023301C0BA9EE
:100400000B930C940D9501F085F820230B931E3B64
:100410000D93301C5B190BA90E930C9501F07AF823
:10042000B44BB54A5C601A6004225A615A6C9C60F5
:10043000DC609C61DC611C625C62DC621C63AF4F4F
:100440001D615D631C1C002A13D19A6440331A702D
:100450008023B9699B001943B961B969301C0B400D
:100460000693069B03230BA90B930C930D9201F0AB
:1004700051F8636CDB067DD4042223689868104031
:1004800078D1616C9E4A0A4002210A4362640322C9
:1004900099680A40012A00D090E11968114203D1FD
:1004A000DA68120400D489E1D968964A266A0A40BB
:1004B000DA60A26977039103E269D2031143626BA8
:1004C000551E6A1E9541E2682D030A4321693A438D
:1004D000022900D10420216B49000A432A43656A9E
:1004E0000243012D0CD1002E03D1802149020A4381
:1004F00006E02021606C08436064A16C2943A1647C
:10050000C220A16AFF30814202D0E06A01430A435F
:100510008020D96840051143D960A16B814202D087
:10052000481E062807D807205D6985435D615D691F
:10053000084028435861DD687348284090420ED136
:1005400000250322A564606C9043023A1043606466
:10055000201C079540300578954210D132E01222D8
:10056000636C9343023A13436364A36C0F3A1343DF
:10057000A36403E01022636C13436364FEE702701C
:1005800004209D68284015D180259A6A6D002A4371
:1005900080259A626D05021CA9420FD04D1E062DC2
:1005A0000CD907255A695A69AA435A615A695A618E
:1005B000021C03E02025606C28436064201C40304E
:1005C000002A00D0FEE708920122027004209D68F4
:1005D000284015D180259A6AAD002A4380259A6269
:1005E0006D05021CA9420FD0013906290CD907213B
:1005F0005A695A698A435A615A695A61021C03E06E
:100600002021636C0B4363640023403423709A42BF
:1006100000D0FEE7E0213D4C09032161E0213C4B85
:10062000C9032360802361610425211C9B0465604C
:10063000A260E360A261E26122626262A262E2629F
:1006400039310978002922D1211C38310A702B490F
:10065000C8691843C861C96990200B400993099B78
:10066000C0235B010B930223C0050C930BA901333C
:100670000D920E930F9500F04DFFC721254B890079
:100680005858254A02405A508022D2051A60231C2D
:10069000022139331970236820481A688A431A6086
:1006A0001A6801390A431A60056801225968114223
:1006B00007D10268521B0A2AF7D903233934237061
:1006C0007BE05968114275D0A2698021012A02D1CC
:1006D0001A680A4301E01A688A431A60E2694021F5
:1006E000012A1DD11A680A431CE0C04600127A0094
:1006F000000400481C0000200024014000100240BB
:10070000FDFEFFFF1902FEFFE7FF3F830801002007
:100710000064004000E100E0FFFF00FF0401002052
:100720001A688A431A60226A2021012A02D11A68B3
:100730000A4301E01A688A431A60626A1021012A9A
:1007400002D11A680A4301E01A688A431A60A26A51
:100750000821012A02D11A680A4301E01A688A4373
:100760001A60E26A0421012A02D11A680A4301E0F0
:100770001A688A431A60A168E2680A4321690A4339
:1007800061690A43616801390A430121DA611A6823
:100790008A431A60056801225968114207D002682D
:1007A000521B0A2AF7D903233934237005E05B680A
:1007B000134010D0042339342370FEE71821DA687F
:1007C0008A43A1680A43DA60196962688900890866
:1007D0001143196168E6E363393422709B4C80222F
:1007E0006360A360E3602361231CD2052260393378
:1007F0001B78002B05D1221C201C3832137000F00E
:10080000B9FD251C022701263935206890492F7033
:1008100000F000FE8F4B2E701B78B3421FD0206873
:100820002F7083688C4A8A4913400722836083684B
:10083000934300228360874B2E701A702B782F70A1
:1008400000F0E8FD0023201C0BA90B930C932E70E5
:1008500000F03CFD804B0093002802D000E0FEE752
:10086000FEE77C4B1B78012B11D023682F701A6A8E
:100870007A48B2431A629A69196A834208D0802082
:10088000C005834204D07648834205D100E0FEE7EC
:1008900003208243161C01221643F0229643E63AB7
:1008A00091439E61196299690232914399619969F4
:1008B00096209961231C01213933197000233834A3
:1008C0002370684C000260608020E3602361A361B4
:1008D000E36123626362231C634F40052760A060CD
:1008E000626169331B78DBB2002B18D1201C6830A1
:1008F000037080235D489B02C5691D43C561C069C3
:100900000D9103400A930A9B902002230F910C93B0
:10091000C00501330BA90B920E9300F0FBFD231CC5
:1009200024220120256869331A702B68A168266982
:1009300083430E4361692B602A68E3690E434C4987
:100940001E430A4032432A6069684A4A266A0A40BE
:10095000E1680A43A1696A600E43AA6846490A40F1
:100960003243AA608022454E1202B54208D13F4967
:10097000086B032101404248405C934240D102E0B1
:10098000BD422DD108E0082828D800F001FF072734
:100990001227162727271C0093423BD1334B394A95
:1009A0005B685B055B0FD05C374B1B68C340181C52
:1009B00005E063685808354B09E000F06FFD636897
:1009C00040005B0803E06368580880235B02C0189E
:1009D000616800F0E7FE002380B206E0012303E037
:1009E000934200D044E1031C00200F22051C10405C
:1009F0009543216840102843C860012B54D1F1E091
:100A0000082800D9EEE000F0C3FE05ED18ED1CED5E
:100A1000EDED4500154B1B4A5B6861685B055B0F9C
:100A2000D05C194B1B68C340181C63685B08C01876
:100A300000F0B8FE80B2E86036E063685808144BF6
:100A40002CE000F02BFD63685B0827E068000020C5
:100A50006C000020A00000208800FFFF002C014057
:100A60000004004048010020004400400010024003
:100A7000F369FFEFFFCFFFFFFFF4FFFF00380140F6
:100A8000DA180008EE180008180000200024F4000E
:100A900000127A006368580880231B026168C0183E
:100AA00000F080FE80B2F060636A002B51D0DA075C
:100AB00006D52168D14A48680240A06A02434A60CC
:100AC0009A0706D52168CE4A48680240E06A024388
:100AD0004A605A0706D52168CA4A48680240206B16
:100AE00002434A601A0706D52168C74A486802408F
:100AF000606B02434A60DA0606D52168C34A8868FB
:100B00000240A06B02438A609A0606D52168C04A5B
:100B100088680240E06B02438A605A0610D521685B
:100B2000BC4A4D68206C2A4002434A60802252032E
:100B3000904205D14868B84A0240606C02434A605E
:100B40001B0606D52268B54B51680B40A16C0B43C0
:100B500053602368B24A59680A402A215A609A6849
:100B60008A439A601A6829390A431A600022E266A9
:100B7000B34222D0221C202369321370221C6A3215
:100B80001370002368342370A64AA74C2260A74A3A
:100B9000A3606260A64A6361E2608022231C920027
:100BA000226139331B78DBB2002B1CD1221C201CA4
:100BB0003832137000F0DEFB15E033681B0704D4F5
:100BC00023681B685B07D5D506E08020800300F012
:100BD0009FFB002806D1F3E78020C00300F098FBBC
:100BE0000028C7D0FEE7251C0227012639352068DA
:100BF00090492F7000F00EFC8F4B2E701B78B34283
:100C00001DD020682F708368009A8A4913400722FC
:100C100083608368934300228360874B2E701A7031
:100C20002B782F7000F0F6FB0023201C0BA92E70F0
:100C30000B930C9300F04AFB002802D000E0FEE783
:100C4000FEE77D4B1B78012B11D023682F701A6AA9
:100C50007448B2431A629A69196A834209D08020A3
:100C6000C005834205D07548834206D101E0FEE706
:100C7000B8E703208243161C01221643F0221643D4
:100C8000E63A0A430C219E611A629A6966488A43D1
:100C90009A619A69011C9A61022701220024102698
:100CA00039310A7038300F700470186A644CB043E0
:100CB00018629D69186A2C40F1252D022C43A0254D
:100CC000A843803D28439C6118629C695D485E4D45
:100CD00020409861986998610A700F70186A2840DE
:100CE0001862DC69186A8446F3208443023804439E
:100CF00000946446554820408024A4002043009C72
:100D0000DC610C241862D869A043D861D869D86125
:100D100004200A70D9684E4C0F43DF60196A914372
:100D20001962196A11431962196811431960D96867
:100D30000143D960196A0018B1431962196A0E4358
:100D40001E62196811431960D9680143D960196A94
:100D5000F8300D401D62196A0025014319621968B7
:100D60000A431A603B4B1E1CE41AA410A54204DA85
:100D7000AB00F35898470135F8E7374B00251E1CA8
:100D8000364CE41AA410A54204DAAB00F358984795
:100D90000135F8E700226421314B9A60DA600132B4
:100DA0001A61304A1960136301932F4B1A681B684C
:100DB000642A00D9A4E02D4B1B78DBB20093002BF2
:100DC0005ED090242A4E80253369E405DB0600D4EA
:100DD0009FE02023274FB361A561386800F042FCF3
:100DE000A562254C23683868181A00F03BFC2023C4
:100DF000B362224B1B68206894E0C046FFFFFDFFF2
:100E0000FFFFFEFFFFFFFBFFFF7FFFFFFFEFFFFF87
:100E1000FFDFFFFFFFFFEFFFFFFF9FFFFFFFF7FF7A
:100E2000FFB7FFFF002C0140C4000020FFFF0000BF
:100E300050C30000C8000020FC0000200004004057
:100E4000FF0CFFFFFFF3FFFFFFFEFFFFFFF5FFFFBC
:100E5000900F0008900F0008900F0008900F0008F6
:100E6000A40000200801002004010020010100204E
:100E700000040048000000201400002004000020AE
:100E80002C4B1C78E4B2002C1CD090242025402749
:100E9000E405294EA561A761306800F0E3FBA56277
:100EA000264D286800F0DEFB254BA7621B683068E2
:100EB0002A68181A801A00F0D5FB6A461D4B127872
:100EC0001A7072E71F4E3578EDB2002D09D09023CD
:100ED0002022DB059A611C4B186800F0C3FB3470BC
:100EE00063E71A4C2378002B00D15EE79023202281
:100EF000DB059A62144B186800F0B4FB257054E7C8
:100F0000134B1A69012312099343019A5B4213752B
:100F100051E7104EA561306800F0A4FB084BA562B4
:100F20001B683068181A00F09DFB00230A4A1370F2
:100F30003BE7C0460201002010000020080000200E
:100F400004000020C00000200C0000200001002050
:100F50000004004800000020010100200148004773
:080F6000FEE7FEE7C5000008F2
:100F680018190008000000201C00002018190008AB
:100F780000000000000000001C000020B801002054
:080F8800000000000000000061
:100F9000F0B5D8250426384C020121686D008A1866
:100FA0005759636B3E409E6003D15659760D1E60C3
:100FB00002E05659F6085E6056590225DA272E409F
:100FC000DE607F00D659B4460F2665462E401E616E
:100FD000D259120AD2B2DA6102018A18B932FF324A
:100FE00016681E751668360A5E751668360C9E758C
:100FF0001668360EDE7556681E765668360A5E76B8
:101000005668360C9E765268120EDA762023002837
:1010100005D1CA681343CB604B69022204E00A6918
:10102000134310220B614B6993434B61231C3933EB
:101030001B78222B14D12368104A59690A405A613F
:1010400059690F4A0A405A6159690E4A0A405A6161
:1010500059690D4A0A405A6159690C4A0A405A6155
:10106000231C39331A78322A01D1203A00E00122B8
:1010700000201A70F0BDC04608010020FFFEFFFFEF
:10108000FFFDFFFFFFFBFFFFFFF7FFFFFF7FFFFFFE
:1010900010B5584C23685A69D20734D59A68564916
:1010A0000A408A4209D09A6854490A408A4204D0C8
:1010B0009A6853490A408A4225D101215A698A43D4
:1010C0005A61221C39321278122A13D159694D4AB9
:1010D0000A405A6159694C4A0A405A6159694B4A57
:1010E0000A405A6159694A4A0A405A615969494A4B
:1010F0000A405A61221C39321178322901D1103943
:1011000000E0012111705A69920705D5DB689B0741
:1011100002D00020FFF73CFF23685A69D20605D5AC
:101120001B699B0702D00120FFF732FF01212368D2
:101130009A690A4208D05A69D20505D55A6912043B
:1011400002D5E26B0A43E26302219A690A4208D09F
:101150005A69920505D55A69120402D5E26B0A4311
:10116000E26304219A690A4208D05A69520505D5FA
:101170005A69120402D5E26B0A43E263702299694C
:1011800011422BD05969090528D55969090425D57B
:1011900099690A40302A12D006D8102A0CD0202A89
:1011A00018D1E26B102113E0502A0BD0602A0CD02A
:1011B000402A0FD1E16B0BE0E26B082108E0E26B03
:1011C000202105E0E26B802102E08021E26B4900F2
:1011D0000A43E26370219A698A439A61E26B002AAA
:1011E00006D004215A6839340A435A600123237017
:1011F00010BDC046080100200300000400030008E1
:1012000000000310FFFEFFFFFFFDFFFFFFFBFFFFDE
:10121000FFF7FFFFFF7FFFFFFA2108B50E4B8900A4
:10122000186800F0BFFA0D4B01380D4A98420CD8EF
:101230000C494860C020136A00061B021B0A0343C6
:10124000136200238B6007330B60136A00201B02BC
:101250001B0A136208BDC04618000020FFFFFF00F4
:1012600000ED00E010E000E0104A137E012B09D1F0
:1012700012680F4911619022D2051269D20512D469
:101280000C4A11E0022B05D113680B4A1A610122A6
:101290000A4B06E0042B08D11368094A1A6101229F
:1012A000084B1A7001E0084A13707047C400002010
:1012B000FFFDFFFFC0000020FFFBFFFF0201002039
:1012C000FFF7FFFF010100200001002030B5041CE2
:1012D00038342278031C0220012A17D01D1C1B68F9
:1012E000393528705A686E3082435A605A680868E7
:1012F000024380205A609A6882439A6098684A68DC
:1013000002439A60002001232B70207030BD000042
:101310001549164A70B513680D68DC6904408442AB
:1013200020D0FA260C68B600641BB442F5D98020A0
:1013300019688143196020211868884318601C6867
:101340000B482040012418609868A0439860131C43
:1013500069331970131C6A331970002368321370D3
:10136000032000E0002070BD04010020480100209F
:10137000FFFEFFFF00B50368224A89B0934223D1E4
:101380008023214A1B019169902019439161926940
:10139000C00513400293029BE023DB00039301226C
:1013A0000223059203A9D21804930692079300F032
:1013B000B1F8C321154B89005858154A02405A50BC
:1013C0008022D2011A601AE08022D205934216D1FF
:1013D00001230D4A9020D169C0051943D161D2691A
:1013E00003A913400193019B80231B020022039356
:1013F0000223059204930692079300F08BF809B03C
:1014000000BDC046002C01400010024000E100E099
:10141000FFFF00FF1B4A10B50368904206D08024EE
:10142000E405A04202D0184CA0420CD17024A34382
:101430004C68234390420FD08024E405A0420BD097
:10144000114CA04208D0114CA04205D0104CA04233
:1014500002D0104CA04203D10F4C2340CC68234350
:1014600003608B68C3620B688362904205D0084BAF
:10147000984202D0074B984201D10B6903630123C4
:10148000436110BD002C01400004004000200040DA
:101490000044014000480140FFFCFFFF30B5194CFB
:1014A00089B0211C1022684600F00EFA211C04AD00
:1014B00010311022281C00F007FA0C2212494B6848
:1014C0001A40082A03D00C2A19D1104818E068469F
:1014D0009A02120F845C0F22C96A80200A40A95C1C
:1014E000C022520213404002834206D0934204D1EC
:1014F000064800F057F9604302E00548F9E7044860
:1015000009B030BDF618000800100240006CDC0283
:1015100000127A00F0B50B6887B0029300230191A6
:10152000029ADA4000D190E001229A400392039996
:10153000029A0A40009200D185E0019A1024526874
:10154000171CA743022F0ED107250F211D40AD0008
:10155000A940DC08A4000419266A8E430199096990
:10156000A9400E4326620324251C5E00B5401440AA
:10157000ED43B4400168013F29400C430460012F52
:101580000ED801998768CC682F40B4403C438460F2
:10159000D406E40F9C40476803998F433C43446062
:1015A0000199C46889682540B1400D43C560D100E8
:1015B00049D50127264C0326A5691E403D43A56158
:1015C0000F25B600B540A46922493C400594059C0E
:1015D0009C08A4006418A168A943039190210025E8
:1015E000C905884208D03D1C1B4FB84204D01B4F90
:1015F0006D19B84200D00335B54003990D430099E9
:10160000A5600E1C164CCD4327683E43D10301D480
:101610003E1C2E4026606768009E3E43910301D425
:101620003E1C2E406660A768009E3E43D10201D456
:101630003E1C2E40A660E668009F3743920201D40C
:101640002E40371CE76001336AE707B0F0BDC046A3
:10165000001002400000014000040048000800485B
:101660000004014082B0054B019018681A68019986
:10167000121A8A42FAD302B07047C0460401002011
:10168000024A1368013313607047C046040100200A
:1016900070477047FEE77047022210B53B4C236845
:1016A000196911420DD0D96811420AD0053A1A6160
:1016B0009B69043222769B0701D0FFF7D5FD0023FA
:1016C000237604222368196911420FD0D968114288
:1016D0000CD0093A1A61073222769A69C0239B001E
:1016E0001A4201D0FFF7C0FD0023237608222368A9
:1016F000196911420DD0D96811420AD0113A1A6104
:10170000DB690D3222769B0701D0FFF7ADFD002388
:10171000237610222368196911420FD0D96811422B
:101720000CD0213A1A6119322276DA69C0239B0063
:101730001A4201D0FFF798FD002323760122236887
:101740001969114204D0D968114201D0033A1A61D3
:1017500080221969114205D0D968114202D0023A9B
:10176000FF3A1A6140221969114204D0D968114226
:1017700001D0813A1A6120221969114204D0D96836
:10178000114201D0413A1A6110BDC046C400002088
:1017900002B4714649084900095C49008E4402BC04
:1017A0007047C046002243088B4274D303098B4222
:1017B0005FD3030A8B4244D3030B8B4228D3030C21
:1017C0008B420DD3FF22090212BA030C8B4202D3C3
:1017D0001212090265D0030B8B4219D300E0090AEB
:1017E000C30B8B4201D3CB03C01A5241830B8B42F4
:1017F00001D38B03C01A5241430B8B4201D34B03DD
:10180000C01A5241030B8B4201D30B03C01A524141
:10181000C30A8B4201D3CB02C01A5241830A8B42C6
:1018200001D38B02C01A5241430A8B4201D34B02AF
:10183000C01A5241030A8B4201D30B02C01A524113
:10184000CDD2C3098B4201D3CB01C01A52418309C7
:101850008B4201D38B01C01A524143098B4201D301
:101860004B01C01A524103098B4201D30B01C01A2C
:101870005241C3088B4201D3CB00C01A52418308A6
:101880008B4201D38B00C01A524143088B4201D3D3
:101890004B00C01A5241411A00D201465241104633
:1018A0007047FFE701B5002000F00CF802BDC0460C
:1018B0000029F7D003B5FFF775FF0EBC4243891A24
:1018C0001847C0467047C046002310B5934203D066
:1018D000CC5CC4540133F9E710BD000408020000D9
:1018E00000000000000001020304060708090000D0
:1018F00000000102030402030405060708090A0B9D
:101900000C0D0E0F10100102030405060708090A4A
:061910000B0C0D0E0F1080
:1019180050000000C80000002800000090010000EE
:0C1928003C0000006400000000127A0087
:04000005080000C52A
:00000001FF
